:100000000C9497080C94C4080C94C4080C94C4086D
:100010000C94C4080C94C4080C94C4080C94C40830
:100020000C94C4080C94C4080C94C4080C94C40820
:100030000C94323A0C94C4080C94C4080C94C40870
:100040000C94C4080C9469250C94C4080C94C4083E
:100050000C94C4080C94C4080C94C4080C94C408F0
:100060000C94C4080C94093A0C94DF390C94C4081D
:100070000C94C4080C94C4080C94C4080C94C408D0
:100080000C94C4080C94C4080C94C4080C94C408C0
:100090000C94C4080C94C4080C94C4080C94C408B0
:1000A0000C94C4080C94C4080C94C4080C94C408A0
:1000B0000C94C4080C94C4080C94C4080C94C40890
:1000C0000C94C4080C94C4080C94C4080C94C40880
:1000D0000C94C4080C94C4080C94C4080C94C40870
:1000E0000C94C4080C94B81E0C943C220C9460141C
:1000F0000C943D230C9417150C94CA2E0C94D22208
:100100000C9432370C9440350C94C2230C94CF1AC3
:100110000C94B42F0C94B52C0C94AE290C94C820DC
:100120000C94492C0C94482E0C948F240C945E351E
:100130000C94501E0C947B390C94D3390C944D1FA5
:100140000C94E4110C94B3140C9402340C94BC2D54
:100150000C94491D0C9469190C9425190C94442095
:100160000C94B9150C94C9100C945B160C942311C3
:100170000C94C4140C947F130C9440190C94BC265A
:100180000C94C61D0C94AE150C94A8340C9400204D
:100190000C9445300C943D280C94F11E0C945B1C7F
:1001A0000C9403270C940A340C94E1150C944E2201
:1001B0000C9446120C9413310C943F110C949E2B0A
:1001C0000C943F1C0C9478390C943E350C9469289F
:1001D0000C9492110C94A01A0C94C5230C94B02C7E
:1001E0000C94F2200C94E7130C94B01F0C9491160D
:1001F0000C94E5240C94C5210C94851B0C94912A35
:100200000C947D290C9420270C94C0390C94D32F86
:100210000C9402270C947B220C94E92E0C94692AEE
:100220000C94D2330C94AF280C94CB290C94B11BB2
:100230000C943A2A0C9467240C94732C0C94172574
:100240000C94EE340C9431360C94D7200C943C363C
:100250000C940B230C940C130C94901A0C94B31163
:100260000C949D130C943D210C9428280C94231C71
:100270000C94D8150C940822040002000004000419
:10028000000004070404000004040400000000004F
:100290000000040000000000040000020200000052
:1002A000020407000407070400000000040400041F
:1002B000040000040002020404040404000004001A
:1002C00004040404040404000400020304000404FD
:1002D000000400040000040004000000000000000E
:1002E0000001020102D7026928020001000000AFEC
:1002F0002803000100000078390400010000007BA1
:1003000039050001000000C039060100018710C94D
:10031000100700010000003F1108010001D6022370
:100320001109000100000002270A020101821028C1
:10033000280B030103D30203270C020102D1023D63
:10034000280D020002D702B02C0E02000254100C3D
:10035000130F030003D302E71310020002D1027F40
:100360001311050005CC029D131202000254103A2D
:100370002A13010001D602912A14020002D1026957
:100380002A150200025410AE2916040004C802BC4B
:100390002D17050005C302B52C18010001D602086F
:1003A0002219080008BB027B221A030003B802D2FC
:1003B000221B0200025410C5211C020002D1024E71
:1003C000221D0400046F100B231E010001D6023C05
:1003D000221F080008B002EE3420020002D102A859
:1003E000342104000356106919220300027310908F
:1003F0001A230300027310A01A2404000450100AE8
:100400003425010001D602023426030003AD02D2D6
:100410003327060006A702171528030003B8024079
:100420001929050003A402C5232A040003A10260C0
:10043000142B0300027310B3142C0400045010C4D6
:10044000142D0300039E02D8152E0300037510E13E
:10045000152F06000698025B1630060006920291E0
:100460001631010001D602E41132030003D3024623
:1004700012330200025410B9153403000273103C09
:1004800036350400046F10323736030003B802B368
:100490001137010001D602E92E38030003D30213FD
:1004A00031390200025410CA2E3A0300027310B40C
:1004B0002F3B030002731045303C0600069202D326
:1004C0002F3D0300027310231C3E03000273103FF4
:1004D0001C3F0800088A025B1C400200025410B84E
:1004E0001E4105000585024D1F420400047C108555
:1004F0001B430200025410B11B440400038202504B
:100500001E450500057D02F11E46010001D6029E32
:100510002B470400036510492C4805000578027339
:100520002C490400045010E5244A030003AD0217CF
:10053000254B0001000000D3394C00050000007875
:10054000DAA559796FDBC815FF2A5C0141BB856DBF
:10055000481429C92EF287AF6CD38D136F14370559
:100560008A82A0C9913430AFE5903EBAF077EF3B74
:10057000E622A564176D80409C99F7E678C7EF1DC9
:10058000FE6D72DFCB224F1E45AB645DA9C9D964F5
:100590009B6567C19F7FBABCFC31884FA29369708D
:1005A0002FABBE9385C2D98F77C1851EFE188427D5
:1005B000E1E2249CCE16D359184F8E26595D9669D8
:1005C00095C326BF4DD2A2A8B3B413492D731564A9
:1005D000755F756FDF6493B3D5119CD875705492B5
:1005E000660F01ACC2B4B7BE883C823C37044DAD47
:1005F000E847566FDFF441D31745D237CCB0700CC3
:10060000BFF6A27DB17BC2051E90BA15AA4B3A99DE
:100610003D281E756D5AA952768939359015BC5FF3
:100620009F1FC33B0A91B689DAF55D5E3F5593B3D0
:10063000109F566DE4166EF45CCCA3D81CA11A99D9
:10064000F0E7E42C9E39AA2A2DEA6D222B7B7BBA97
:10065000F6E46CEE76D25736143C4C3C392C2D29FE
:100660004D8A76B8D94006CBC812E7722BBBB44886
:10067000EABE1B313CA6452F709C8B4DDA175D629C
:1006800027CAF439C9FB36EDC002E89E3377B800BB
:100690007D767533D82B1B1C1E2E2CF12E8FA2E5D8
:1006A0006A6A885B95E8B385F9C823FB15DBAF85DB
:1006B000FD5ADA2F51A42F5669208EB93D448699F0
:1006C00039003E4190AC56B035FC059B017D33535B
:1006D000E4C45236FD69184F7D46AB38F7D84AD48A
:1006E0008D7C16C5487279DAA58992FF8103763D23
:1006F000B84397A0C43C8B5202A664E5DD77E93489
:10070000DD3C9507B491BD8095B93DB42E76FD587A
:100710003B30B3A79EC8DD182C70BC313A56271F5A
:1007200045B293DB1DBD70BEF2E9C13CB785D83739
:10073000E1C0AE25DD4B235836D180D3B8C4216645
:10074000BD94946AFBF6CD5F0003E6F301EF93ECF2
:100750007620862433360F14DE3BBAE56968D593DC
:1007600059C35159F160BF656E3F5FAA2C19DA4831
:10077000909579B2673653EF04D134CE8B70986878
:100780006BCE656B3E190988D851F58512DEA6A19E
:100790007B58B7136D598383360725EA2F3BA14653
:1007A000EE525D99F5696B6DA37D4EF6BC3BE8ECAE
:1007B000245A5E274BC14F3B75BBB4280F2756D830
:1007C0003F17F73DD873DD4CCE4ECD0876D9922D2C
:1007D000B37E6696AC1529006D9B8B16CF430F62D6
:1007E00014080DC1532B3BB1478146CB84007DA239
:1007F00014ED5654D94B827001978029868E645728
:1008000097620F94555A36BE03E8B185E42168C358
:10081000D51D5CF173AD8C5BB9DD8A161FA1D03F8D
:1008200010916277388504B853DA092BA010AC7A9E
:100830002301A4C1A513966190B5198BF568B20583
:100840006FA67B82FDEB11D18057F3B06F500BA0E8
:10085000C8A38946BC44C1790958A00574FC66390F
:100860002FC21119AAC09039752C4088084B659D7C
:10087000CBCD4B02BAB67BB5825C2AD071096E80B3
:10088000ABCC166936D6E1901EE7924268D0089943
:1008900050EB727C7C040A93B9A83A383CA8371B09
:1008A00038859CCA062438C7C0233DC34A7339F52E
:1008B00056FA267792E6A8BDEBBD6396B00DAB6401
:1008C000144A0F476BD0C074C440BAEC1D8844A7CB
:1008D00096601C76FF47632B9DB169F47523481D14
:1008E000B6C0B813D98317ACE7F655A3586D6FD0CF
:1008F000D4E0CFE3F3BD7031371B8C02D537C5B2DE
:1009000018318CC512C786600FF2BF9118A14D0334
:10091000C2CB0DBF29B6573A0472DFD8C313DD40EE
:10092000723C0070059FCB7DC1B1F27A71286FB126
:1009300067D47E649DC5866514582DB9D51618C731
:10094000C2102392DBE88F2A62F03206BEA3CC01EC
:100950007E25C003780AC574D04BAC3F899F516196
:100960007C1E30808D228DFF8651D205F79EEF11BF
:10097000D10B2811B07B0EB202605A3053259EF580
:1009800015205659E7952DC3D98C898C3C7E27C3F9
:1009900000A9C0ABBC608FE9F0C6D9AC73D638648F
:1009A0003ACFDDBDD57964563B4CC2FCF0A773321B
:1009B0008032E1E566C0B2702CAADE744F692B7CF0
:1009C000DE52AADA04BBB256F25016B0B769B4E2EE
:1009D0004DBFFD8E39BE97128CEFE1747C3AA43A7C
:1009E0000CD3319EC6A94482B100204E6262661DBE
:1009F0006F76EA082802A1F5728C0A6CC8F2021818
:100A000070C0963A1118889A90DA0239570548CA88
:100A1000DC284374D9031E0026E1D1757E82219A19
:100A2000BAD5D18DBD97C6D648C4732341257E2C37
:100A30003DB53B8D5EE113416064E43FE4C79E0F2A
:100A400044AF2669C11AF1FCEA32B939FF27A62260
:100A500098535DDCAD93DBF71FD788585087DE5E77
:100A6000CC8F6E2F42F83F9B788BDD132D5E4D8F20
:100A70006EAF70E1F2C3A7CB9F93779FAF7F4177B3
:100A800099D2BFA3C9CDE51D50A55D29B669182F20
:100A9000A64078FBF5864F0B111B3F5F5F5EBFFFE3
:100AA000C775F2F5FDC7AB4F5F516D214EAEAF3F3D
:100AB000C324DF42B4322DF0AC6B38EB1ACF82D5B1
:100AC000F7E71F928BF3BB2BDC868F5A7F39FFB27F
:100AD0004ED67737EB5F60657D8D2B8B57CC407A98
:100AE000C889286BA78A58172BF8496F98020DD828
:100AF000348E6FCFA793B37F4D8F56FF866B5EE02A
:100B0000F78ABF2FF11B408006573880DC8506D757
:100B100038807A9206EF701069FE9F68A037F81B44
:100B20000E62BDC1DF71B0D43C3FD3319AE7030DF3
:100B300090E775000D90B252313F9BCFE770E3A371
:100B400049AAE269B4CC291DE80A1143E57F0F0FD9
:100B5000D65CFA79A43F7C1EC6248926D842EA993D
:100B6000C85C2B3D20E3D87030E502F2BC401B7F0F
:100B7000094C5A9633605EA65550D55D00C61E20BE
:100B8000600480710C6C01D96CF0B493F0CDB6A701
:100B90008206BC074E624436BCBD1214DBDA59B083
:100BA000A9DB00CCE0AF662C15AEE6344F538A13B8
:100BB0000E60FD538701016A8E2D5C0812F9B44363
:100BC000EA545F932B2CCE3435B142523479CE8720
:100BD000799662076D0D371555608A10CB0F4677F1
:100BE000C95D93A0495B30B940B46DDD52AA691666
:100BF0005A01214C75D43B7997C27BF3A0AB0342D9
:100C00000AAC85C9C139D4BDE7001B98E682EB75F3
:100C1000709C63283454BA5D4359AE9B0332BC4A7E
:100C20005A0A08925CEC98C5B27E14E63601D6C327
:100C3000E8D16ED956CFB65EE65A676F5D2789F662
:100C40007CCC020C11083060B3C3F2C3CC62996B48
:100C50007003C1C69BD7B94DB6938D669C474302BE
:100C60005041DFB837290E80866290DD78BB20F0D6
:100C7000DDA4CF68A72B23502E596F8452E9560468
:100C800050ED402C320A03F1DF4885D6A4203DCC3C
:100C9000FB02AB2D60C6D01D685424C3178F0235EC
:100CA0008151FBDB0CBBB4CDC9D83535768E6E5087
:100CB000FC94CD04F0D56E8AFA89D3A18F60E569E2
:100CC000C0CF41F72254C1E687BF0076CF0BD8A82A
:100CD000F21764D570D2C035022D557853373D27B1
:100CE000F4B4D6DFB4F5168459C2D5537CDB06A222
:100CF0002EDC12842DD0713123FF2CF4A3D058D1D7
:100D0000B3E0181435A8012D19AB96B525D8934E2C
:100D1000F0248B02825106FB0DDA1F1C5E1DA79585
:100D2000D0773830395F8317B20EE9024821CBBE45
:100D30003473C63940876BD3E2A0620B3623BF25DC
:100D40000CF2FB816BEDC85D5D079B945EC72FC302
:100D5000DAF28B6F52283220A4A60E07E62F240F5A
:100D6000E48438AC04D5CA7795EA1B8CC5829D9A79
:100D70009014339BAF6997EDF27ACB52FC8193329A
:100D80006AAE4215D2570FB0312202F7ECBC79E5BA
:100D900016E055EC2300190A900E3D18A23CD4939E
:100DA0008AF5EB756A18B0EAAA008C7B840DD2FB39
:100DB000C240977DFE291592814E3EB81D35AA5C32
:100DC000CF824F009E1000EF315FD860E742FDC038
:100DD0009D09EA075B1CD55DE29CDB110AEBCF0A9B
:100DE00010824D26836532289B1F11B490E88AB487
:100DF000C5D881ADAD039907EA8BAD1BDB4E1A6EEA
:100E0000D97730DF82D0B4D79AC1D804E9C17CB693
:100E10008A630A757AB0A058C783454CCA87C162F5
:100E2000B184EFF9EB2BD5070D6083E0B6B72E52F6
:100E3000FDE451216256991895C2A720F58335AD7E
:100E4000AB6474FD65B233AE02FCDDEE7BF23DE2D5
:100E5000DAC84D8DBF85F47ADB98EE6366636BE389
:100E6000412B84773C5438ADBC3EFD8023F50ADF2E
:100E70008056F835C788975C1FB93474657BE210DB
:100E80003C7517851E48CD169C335645D93FA09A10
:100E90007FEF15F550A99EFEDEAD3587FE48DCE9F3
:100EA000C79858980E9702F7B30DAB55E41A4483D0
:100EB0009D773554B0DBFD33FCFE13B02F5CCF259E
:100EC00031EA7769318FB59267AEADE291DAFE0A09
:100ED0009BC3099282C9790209C6B913CB6409BEC2
:100EE000662AFE3F6063C7E871073B04FF9791F5F0
:100EF000FB46763CF71B445ADEE6727D96514F3E28
:100F000043A5C00B400A7E277285A5B1C35DD3B44B
:100F1000392C80959FA0FE2111843E87575FF90CE4
:100F2000A0A98345F19E7AFDC687AFE7685884FE85
:100F30008E59ACA8480440A36C75B9E05459395B8C
:100F4000567DA97FD4AFDC21F2CACA51CDC96D3616
:100F500048B957F108D7866A38E8EC3D4726D2CD24
:100F6000E9D415A2FBF7C712943D7D505C3AE7C95E
:100F7000525BE91E6CCCFAC0400523E5C5FC578ADC
:100F8000DE5FC4D241FF4112CAAFC7E9C96C7632F5
:100F90003D9E45ABE36D1C6E22114EB3C9EB7F0144
:100FA000FE47A079650A00002000230026002900E2
:100FB0002C002F003200000100000301060109018E
:100FC0000F470044004500800135480044004500BB
:100FD00020010D88008000810080000E8A008000C2
:100FE000810020000F8C008000810008000CB300FD
:100FF000B000B10080033EB400B000B10020032374
:101000009800900091008000249A009000910020A8
:1010100000259C009000910008003BA800A000A1C2
:101020000080003CAA00A000A10020003DAC00A070
:1010300000A10008005B28012001210180005C2A3A
:10104000012001210120005D2C0120012101080067
:101050000400000004040404070400000204000269
:10106000040204000704020704000002040402044E
:101070000000040407040002040404000404000443
:101080000401070400040200000000000000060044
:1010900002026617045010650A025410644002737D
:1010A0001063400356106240036510611F0759101A
:1010B00060400365105F0B0260105E400362105DCC
:1010C000400365105C1C0768105B400273105A14E3
:1010D000046F105940027310581003751057110413
:1010E00078105611047C10550D028010540B0187A6
:1010F0001053400182105212048310510B018710CB
:1011000050100288104F15038A100040028D104EB7
:101110000E028F104D090191104C06000000282985
:101120002A2B2C2D2E2F50515253545556571124E3
:101130001FBECFEFD1E2DEBFCDBF00E00CBF14BEBB
:101140000FB6F894A8958091600088618093600044
:10115000109260000FBE12E0A0E0B2E0EEEDF5E705
:1011600000E00BBF02C007900D92AA32B107D9F779
:1011700023E0AAE2B2E001C01D92A739B207E1F76D
:101180000E949A260C94ED3A0C940000CF93DF93C2
:10119000CDB7DEB76A970FB6F894DEBF0FBECDBFEE
:1011A0000E9487266B017C019E012F5F3F4F190132
:1011B000AE01475F5F4F5D874C8780912602882391
:1011C00009F43DC50E948726C61AD70AE80AF90A1B
:1011D000F89480912602882351F08FEF80932602A5
:1011E00078940000F894809126028111F9CF7894C8
:1011F0000E948726A7019601260F371F481F591FF7
:101200002A8B3B8B4C8B5D8B81E0809326028091F7
:101210004A02882309F440C010924A028FEF898362
:101220006CE372E2C1010E946E118C01892BA1F165
:10123000D80156968C9182FFF3CF0E948726F894AE
:10124000F80137892689422F4B7F468B78949F93EC
:101250008F937F936F931F923F9321701F922F93D1
:1012600089811F928F934DEDC42E40E1D42EDF92E1
:10127000CF920E94ED312DB73EB7245F3F4F0FB69E
:10128000F8943EBF0FBE2DBF6CE372E2C1010E9415
:101290006E118C01892B61F680914B028823F9F045
:1012A00010924B028FEF898368EA74E3C1010E94B8
:1012B0006E11FC01892B99F0958D868D9813F4CFD2
:1012C000F894858D968D891709F497C5789468EA06
:1012D00074E3C1010E946E11FC01892B69F78091B2
:1012E0004702882309F449C0109247028FEF8B8789
:1012F000DE011B962D0160E479E1C2010E946E11AE
:101300005C01892BD1F1F501818D80FFF4CFF89438
:101310006480758086809780818D8E7F818F7894A0
:10132000808D813009F4F5C308F4D6C3823009F406
:1013300096C3833001F7CB8419821A82910142E06F
:1013400061E0F501848995890E94961909811A81C5
:10135000102701271027F02FF670EF2E20E030E045
:10136000B401A301C5010E94591560E479E1C201ED
:101370000E946E115C01892B31F680914602882310
:10138000B1F1109246028FEF8B879E01255F3F4F90
:101390002901B2E0DB2E1DE2E12E08E0F02E69EB20
:1013A00075E1C2010E946E118C01892B01F1D801F7
:1013B00052968C9182FFF3CF80FF82C0C8010E94B9
:1013C0006135F801D28AE982FA82910142E060E057
:1013D000848595850E949619C8010E94D81669EBEC
:1013E00075E1C2010E946E118C01892B01F7809179
:1013F0004502882309F469C0109245028FEF8B875C
:101400009E01255F3F4F290166246A94ADE17A2E43
:1014100003E263EB71E1C2010E946E115C01892B52
:1014200009F453C0D50150968C9182FFF2CFF89405
:10143000F50144815581668177811489108A148A67
:10144000789480859185A285B3856A017B01C81A4D
:10145000D90AEA0AFB0ACE86DF86E88AF98AD5012C
:10146000112389F052968C91F501E80FF11D658AE0
:10147000168A178A8D5FF501828B8E32D8F411504F
:10148000D5011111EFCF51968C91882309F484C2B4
:10149000813009F46BC3823009F461C4D5015296DE
:1014A0008C9190E08E970CF4B4CF6B85C5010E94AF
:1014B0000C37AECF6B85C5010E940C371150E0CFC1
:1014C0006B85C8010E941D176ACF80915102882345
:1014D00009F462C0109251028FEF8B87FE013B9698
:1014E0002F0112E0A12E03E2E02E8AE6F82E94E00E
:1014F000B92E20E4C22E38E0D32E6AEC7EE2C2017F
:101500000E946E118C01892B09F446C0D8015296B5
:101510008C9182FFF2CF80FF35C1C8010E946135F6
:10152000F801A28AE9821A820484F585E02DA101DE
:1015300062E080810E949218F982BA82D8011C96DA
:10154000ED91FC911D97A10162E080810E949218AB
:10155000F982CA82D8011C96ED91FC911D97A101D8
:1015600062E080810E949218E982DA82D8011C969A
:10157000ED91FC911D97A10162E080810E9492187B
:10158000C8010E9464306AEC7EE2C2010E946E11C2
:101590008C01892B09F0BACF809148028823E9F0A9
:1015A000109248028FEF898301EA10E161EB7BE141
:1015B000C1010E946E11009781F0FC01208D2F3F28
:1015C000A9F7F8942685211105C3789461EB7BE196
:1015D000C1010E946E11009781F780914902882312
:1015E000D9F1109249028FEF89830CE910E161EF84
:1015F0007EE1C1010E946E11009771F1DC011E961F
:101600002C911E9723FFF3CFF894FC012685277FAA
:10161000268778949C01265E3F4F3F932F935096E8
:101620008C918695869586951F928F9389811F92BE
:101630008F931F930F930E94ED31EDB7FEB738964D
:101640000FB6F894FEBF0FBEEDBF61EF7EE1C101A2
:101650000E946E11009791F680914E02882309F442
:1016600046C010924E028FEF898302E910E167E1D4
:1016700075E2C1010E946E11FC01892BC1F1848DBC
:1016800080FFF5CFF8949481258136814781548974
:1016900065897689A789B08DF18CE28CD38C848D95
:1016A0008E7F848F7894DF92EF92FF92BF93AF93F7
:1016B0007F936F935F934F933F932F939F93898172
:1016C0001F928F931F930F930E94ED312DB73EB75A
:1016D000205F3F4F0FB6F8943EBF0FBE2DBF67E1AE
:1016E00075E2C1010E946E11FC01892B41F6A8959B
:1016F00080917302882329F080E480936000109227
:10170000730210913403112309F472C000912A026C
:1017100000FD12C0153008F46BC0B0907402CB2CE1
:101720008BEF8B0D8C3308F4B1C2EEE7CE1609F4C3
:1017300022C4016000932A02412F50E06EE770E05E
:1017400084E792E00E94BE3A009739F00E7F009342
:101750002A028457924011E0180F01FD0CC0902F0F
:10176000926090932A028AE395E09F938F930E9460
:10177000ED310F900F90B12EDD24DA9480E0EB2C48
:10178000F12C1DC06B85C8010E948330B6CE90E05D
:10179000402F50E0481B590BB701680F791F6C5858
:1017A0007D4F8C589D4F0E94D43A10922602802F74
:1017B0009FB7F89420913403121761F09FBF1091E6
:1017C0003403012F0B1919F79FB7F89420913403B4
:1017D0001213F4CF009334039FBFF1E0DF1208C06F
:1017E0008AE395E09F938F930E94ED310F900F90C5
:1017F0000E9487266B017C012A893B894C895D897F
:10180000621B730B840B950B809033029090340213
:10181000A0903502B09036023FEF831A930AA30AD4
:10182000B30A8092330290923402A0923502B092B1
:10183000360240902F02509030026090310270903A
:101840003202460E571E681E791E40922F02509299
:10185000300260923102709232026115710541E0EE
:101860008407910508F0F0C19B01AC010E943D3A4C
:10187000DC01CB0181509F4FAF4FBF4F892F9A2F73
:10188000AB2FBB2740912B0250912C0260912D026F
:1018900070912E02840F951FA61FB71F84179507FE
:1018A000A607B70718F48FEF9FEFDC0180932B0298
:1018B00090932C02A0932D02B0932E0240916F02C0
:1018C0005091700260917102709172025C546B438E
:1018D0007B4F2F2DC416D506E606270B27FD6DCCB2
:1018E000BF93AF939F938F937F926F925F924F922C
:1018F000BF92AF929F928F9285E091E19F938F93D9
:101900000E94ED316DB77EB7625F7F4F0FB6F894DE
:101910007EBF0FBE6DBF80916F0290917002A0914B
:101920007102B0917202C816D906EA06FB0698F455
:1019300080916B0290916C02A0916D02B0916E0249
:101940000196A11DB11D80936B0290936C02A09330
:101950006D02B0936E02C0926F02D0927002E0925C
:101960007102F092720210922B0210922C021092CD
:101970002D0210922E0210922F021092300210921D
:1019800031021092320210923302109234021092FD
:1019900035021092360211CC82E389831A820E94AA
:1019A00087266B017C01910142E061E0F5018485AD
:1019B00095850E9496190E948726DC01CB018C191F
:1019C0009D09AE09BF0981329340A105B10508F018
:1019D000F3C0998197FD2AC12E853F854889598991
:1019E000C21AD30AE40AF50AD50153968C918823CA
:1019F000C1F02FEF280F41E050E002C0440F551F07
:101A00002A95E2F7052E000C660B770BC40ED51E47
:101A1000E61EF71E04C0F694E794D794C7948A95FF
:101A2000D2F7BFEFCB16D104E104F10408F05CC19A
:101A30002A8130E0220F331F892F90E0982F8827CA
:101A4000990F822B932BF5012289E20FF11DC58A94
:101A5000868B978B2D5FD50152962C931FCDCB840F
:101A600081E089831A821B821C82910143E061E03C
:101A7000848995890E94961969817A818B819C81DC
:101A80000E944D3ABB27A92F982F872F9C01AD01AB
:101A9000442755272E873F87488B598B37E039835A
:101AA0001A82910142E061E0D50154968D919C919A
:101AB00055970E9496198A81982F9C7F8E858170F8
:101AC000E92EE82A0E851F8528893989B401A301EA
:101AD000C5010E9459150FCCCB8419821A821B8232
:101AE0001C82910144E061E0848995890E949619E5
:101AF00069817A818B819C810E944D3AB62FB770A3
:101B0000EB2E8B019C01B401A301C5010E94591564
:101B1000F2CBCB84CE863CE0D32ED9821A821B82B4
:101B20001C82910144E061E0848995890E949619A4
:101B300069817A818B819C810E944D3A6B017C0185
:101B4000BFE0B9831A82910142E061E0F501848926
:101B500095890E949619970186013327CE84EA80E1
:101B6000B401A301C5010E945915C5CB8FE7898334
:101B70008EEF8A830E9487266E8B7F8B888F998F4A
:101B8000910142E060E0F501848595850E949619F7
:101B90000E9487266B017C01DC01CB012E893F89E5
:101BA000488D598D821B930BA40BB50B813293404A
:101BB000A105B10508F4A5C0D50152968C91F50197
:101BC000E80FF11D658A92E0968B178A8D5FF5010B
:101BD000828B64CCFC01318D308F7894AC01415FF5
:101BE0005F4F5F934F931F922F9387891F928F931D
:101BF00089811F928F931F930F930E94ED31EDB750
:101C0000FEB73A960FB6F894FEBF0FBEEDBFCECC2E
:101C10002C853D85E217F30709F0E0C0809590E040
:101C20002A8530E08217930709F408C1D50152963E
:101C30008C91F501E80FF11D658A93E0C5CFCA8A42
:101C4000DB8AEC8AFD8AE0CA6115710550E18507DF
:101C5000910508F028CE8B019C0101501F4F2F4F9A
:101C60003F4F5527432F322F212F0E943D3ADC0151
:101C7000CB0140912B0250912C0260912D0270916A
:101C80002E02840F951FA61FB71F08CED090750295
:101C90008D2D807F803109F048CD1B1508F4A8CD2B
:101CA0008B2D90E0FC01ED58FD4F20812E3709F07F
:101CB0003CCDAC014F585D4F4A01FC01EE58FD4F41
:101CC0009081DA018C91292F30E07901F82A6DEFAB
:101CD0006B0D84E792E00E949D26E816F90609F450
:101CE0004CC1C090740221CDF5018289E80FF11D2D
:101CF000658A91E0968B178A8D5FD50152968C93F9
:101D0000CDCB80EC89831A82910142E061E0D5015C
:101D10001C968D919C911D970E94961949812A814C
:101D2000942F9227892F82958F709827892F8695D7
:101D300086958927982F9695892780FD93C046FF21
:101D4000A1C0F5018289E80FF11D658A75E0C72EF3
:101D5000C68A178A8D5FD50152968C939FCBD50189
:101D60001C96ED91FC911D9714818280938040E038
:101D7000B401812F0E9416190E9487266B017C01F5
:101D8000B0E1CB0ED11CE11CF11C0E9487262F2D47
:101D9000C616D706E806290B27FFF7CFF89441E0CF
:101DA000B401812F0E9416190E9487266B017C01C5
:101DB0007894F1012AE011922A95E9F734E8398301
:101DC0000A8391014AE061E0D5011C968D919C91B6
:101DD0001D970E949619FE01339685E091918927FF
:101DE00028E030E005C0880F2150310909F410CFF8
:101DF00087FFF9CF880F8725F7CF548965899089A8
:101E00002189328943898F5F858F78946F935F939F
:101E10004F933F932F939F9389811F928F9348ED08
:101E200050E15F934F930E94ED318DB79EB70A96B4
:101E30000FB6F8949EBF0FBE8DBF36CA898584FF4A
:101E400018C08B8187FD65C0D50152968C91F50134
:101E5000E80FF11D658AB4E0B68B178A8D5FF50136
:101E6000828B1CCBF5018289E80FF11D658A93E016
:101E700041CFD50152968C91F501E80FF11D658A8D
:101E8000B5E0EACF6E857F8588899989C61AD70A19
:101E9000E80AF90AD50153963C913323C9F08FEF34
:101EA000830FE1E0F0E002C0EE0FFF1F8A95E2F73A
:101EB000CF01092E000CAA0BBB0BC80ED91EEA1EBF
:101EC000FB1E04C0F694E794D794C7943A95D2F7D2
:101ED000FFEFCF16D104E104F10408F043C0842FD2
:101EE00090E0AC01542F4427550F550FF4E02F9F7D
:101EF000C0011124842B952BD50152962C91F5010C
:101F0000E20FF11DC58A868B978B2D5FF501228B21
:101F1000C5CA2E853F8548895989C21AD30AE40A61
:101F2000F50A31E5C31635E5D306E104F104D0F432
:101F30002C8130E0220F331F90E0982F8827990FD3
:101F4000822B932BD50152963C91F501E30FF11DA5
:101F50002F8126952F73258B868B978B3D5FF501FF
:101F6000328B9CCAD50152968C91F501E80FF11D78
:101F7000658A91E029CE11E0FECB802F8D7F809382
:101F80002A0280910802D812FFC081E08D0D8F7067
:101F9000806180930802B6E78B16B2E09B0609F0D9
:101FA00008F4BEC0E6E7F2E0BA8ECDB6DEB68F0129
:101FB0000F5F1F4F2081222309F4E8C0E9E3F5E019
:101FC0008491281708F0E2C030E0220F331F220F5F
:101FD000331F220F331FF901E652FD4FE491EDB696
:101FE000FEB644E0E49FE018F10811240FB6F8941F
:101FF000FEBE0FBEEDBE8DB79EB70196F901E4524D
:10200000FD4F4491F901E352FD4F65917491FB013D
:10201000640F711DAC01DF86CE869F8B8E8BE61719
:10202000F70709F482C08016910608F46EC0A491E7
:10203000A53028F1A73009F068C02801BFEF4B1A7E
:102040005B0AD801AC9082010A0D111D8016910621
:1020500008F45BC0B12CC12CD12CDA01AD92BD9239
:10206000CD92DC921397612C712C14964D925D9257
:102070006D927C921797485F5F4F3196D0CF7A016F
:1020800084E0E80EF11C68019FEFC91AD90AD80153
:102090001C91912F9F77492E512C612C712C012F6F
:1020A00000760036A9F117FF3EC086010F5F1F4F73
:1020B000D80111978C91440C551C661C771C440C5C
:1020C000551C661C771C440C551C661C771C440C64
:1020D000551C661C771C440C551C661C771C440C54
:1020E000551C661C771C440C551C661C771C982FCD
:1020F0009F77492A87FDDACFDA014D925D926D9282
:102100007C921397A70131968ACF87E00E9471399C
:10211000B0EE4B2A55245A94652C762CC4CFBA8C39
:10212000DD24D3942BCB8601E7CFCE84DF848E8948
:102130009F8940912702442331F0F901E552FD4F78
:10214000E491E0FF11C021523D4FF90125913491F6
:10215000F90119950FB6F894DEBE0FBECDBE081575
:102160001905E8F6F80121CF809128021F928F937C
:10217000E4E1F1E1FF93EF930E94ED310FB6F894A3
:10218000DEBE0FBECDBEEBCF1B2DEDCA85E00E949B
:1021900071390F931F93CF93DF938C0180913F028E
:1021A00090914002892B09F04BC060913E0270E093
:1021B000623071052CF482E080933E0262E070E0B0
:1021C000E0913A02F0913B024DB75EB741505F4F4C
:1021D00044275A959F01C0E0D0E0C901860F971FA0
:1021E0004817590730F121969C01C115A4E0DA0780
:1021F000A1F78E1B9F0B0E94CA31D0934002C0935F
:102200003F0290933D0280933C020E940529F80111
:1022100080819181A281B381809341029093420297
:10222000A0934302B0934402DF91CF911F910F918D
:102230000895209711F0C901DCCF80E10E94713927
:102240008DE00E947139CF9320913802309139028C
:10225000232B91F4FC01C0818C2F90E0880F991FF3
:10226000880F991F0E94CA319093390280933802D7
:10227000C0933702CF9108958AE00E94713980910E
:102280003F02909140029F938F9321E0309127026B
:10229000311101C020E01F922F93209144022F930F
:1022A000209143022F93209142022F9320914102CB
:1022B0002F9321E0892B09F420E01F922F9386EFC2
:1022C00090E19F938F930E94ED318DB79EB70C964E
:1022D0000FB6F8949EBF0FBE8DBF0895CF93DF93C6
:1022E000EC01988140913702A0913802B0913902F7
:1022F0000BC0FD0184E0989FE00DF11D11242081A9
:1023000031812617370741F09F5F941790F380E0E3
:1023100090E0DF91CF910895988382819381DF913E
:10232000CF910895FC01808982FD19C08460808B63
:102330001092260281E08093450244815581668196
:10234000778180859185A285B385840F951FA61F0F
:10235000B71F84839583A683B78381E0089584891A
:102360008F5F848BE5CFFF920F931F93CF93DF9303
:10237000EC01F88483E08F1508F145E450E063EB4D
:1023800071E188810E94BE288C0182E991E1F80107
:102390009383828362ED73E38C810E94ED28F801C0
:1023A00095878487FC01858180FF0BC0F801F18A45
:1023B000DF91CF911F910F91FF90089582E20E94CB
:1023C000713981E20E9471398F929F92AF92BF92D0
:1023D000EF92FF920F931F93CF93DF931F921F9261
:1023E000CDB7DEB77C0169EB75E1FC0180810E940D
:1023F000ED288C0189EB89831A820E9487264B0184
:102400005C019E012F5F3F4F42E061E0F80184854F
:1024100095850E9496190E948726F80121892F939D
:1024200020892F932A811F922F9323891F922F9304
:1024300027852F9326852F93DC01CB0188199909D5
:10244000AA09BB09BF93AF939F938F93BF92AF929B
:102450009F928F92F70180811F928F9384EC90E17D
:102460009F938F930E94ED310FB6F894DEBF0FBE9D
:10247000CDBF0F900F90DF91CF911F910F91FF90E3
:10248000EF90BF90AF909F908F9008954F925F9282
:102490006F927F928F929F92AF92BF92DF92EF9254
:1024A000FF920F931F93CF93DF931F921F92CDB78D
:1024B000DEB77C01FC01D08069EB75E18D2D0E94B7
:1024C000ED288C01F70180859185A285B385892B44
:1024D0008A2B8B2B99F1C8010E946135F701848109
:1024E0009581A681B781F80184839583A683B783FC
:1024F000F70180859185A285B385F8018087918752
:10250000A287B38781E0828B118A108A178616868C
:10251000138AC8010E94B3350F900F90DF91CF91BD
:102520001F910F91FF90EF90DF90BF90AF909F9021
:102530008F907F906F905F904F900895C8010E9498
:102540006135F801128A8DE289831A820E948726FA
:102550004B015C019E012F5F3F4F42E060E0F801BC
:10256000848595850E9496190E9487262B013C013F
:1025700081E2F82E99EBE92E03C0FA94FF20C1F016
:10258000E9821A829E012F5F3F4F42E061E0F8012D
:10259000848595850E9496198A818F7749F08132CA
:1025A00060F76D2DC8010E941D17FA94F110E8CF55
:1025B000F8018389882331F06D2DC8010E94F71638
:1025C000F8018389F80191899F9390899F939A815B
:1025D0001F929F931F928F9387858F9386858F93EA
:1025E000D301C20188199909AA09BB09BF93AF9306
:1025F0009F938F93BF92AF929F928F921F92DF9281
:1026000084EC90E19F938F930E94ED310FB6F89484
:10261000DEBF0FBECDBF80CF8F929F92AF92BF9291
:10262000FF920F931F93CF93DF938C016DE973E1BA
:10263000FC0180810E94ED28EC010E9461358F8DA4
:1026400098A1892B09F058C0F80104811BA1FF242F
:10265000F394002339F16C897D898E894F2D0E9476
:10266000161921E001111CC014FB882780F991E0A4
:102670008927281741F08F89988DA98DBA8D892BCC
:102680008A2B8B2B89F410711F291BA3DF91CF910B
:102690001F910F91FF90BF90AF909F908F900895E2
:1026A00020E0E2CFF12CD7CF0E9487268F88988C2C
:1026B000A98CBA8CDC01CB01880D991DAA1DBB1D0C
:1026C000888B998BAA8BBB8B8C839D83AE83BF83B6
:1026D00080E297E29B838A83107114601F291BA3F9
:1026E000CE01DF91CF911F910F91FF90BF90AF90DE
:1026F0009F908F900C94B33582E10E947139CF93F3
:10270000DF93EC016DE973E188810E94ED28F89474
:10271000FC01278D30A1232B69F44C815D816E81F2
:102720007F81FC01438F548F658F768F7894DF9182
:10273000CF91089584E10E947139CF92DF92EF9298
:10274000CF93DF93EC0161E088859985AA85BB85ED
:10275000892B8A2B8B2B09F460E08C810E94352514
:102760006B01E82E44E250E06DE973E188810E943C
:10277000BE28FC01C48AD58AE68A21E048855985AD
:102780006A857B85452B462B472B09F420E04C8539
:102790005D856E857F85452B462B472BB1F430E058
:1027A000232BFC0123A3488959896A897B89478B9C
:1027B000508F618F728F6AE070E04F96DF91CF91FA
:1027C000EF90DF90CF900C944F2930E1E9CFCF927A
:1027D000DF92EF92FF920F931F93CF93DF938C01C1
:1027E0006DE973E1DC018C910E94ED28EC010E94FF
:1027F0006929FC01D8011496CD90DD90ED90FC90F4
:102800001797C282D382E482F58218964D915D912A
:102810006D917C911B974683578360877187F894ED
:10282000118210828F8D98A1892B81F0A9A1BAA164
:10283000ED93FC93FAA3E9A37894DF91CF911F91D4
:102840000F91FF90EF90DF90CF900895FAA3E9A346
:10285000F8A3EF8F8BA182FD25C0C88AD98AEA8AA6
:10286000FB8A982F94609BA381FD10C0CE010E942B
:102870006135CC82DD82EE82FF8280E297E29B832B
:102880008A83CE010E94B3357894D7CF4C815D8185
:102890006E817F81872F4C155D056E058F0987FF3F
:1028A000E5CFF2CF488959896A897B89972F4C15E2
:1028B0005D056E059F0997FFD0CF83E10E947139B6
:1028C000AF92BF92CF92DF92EF92FF920F931F933E
:1028D000CF93DF93CDB7DEB77C01ADB6BEB6FC01BA
:1028E000C08064EC74E18C2D0E94ED28F7016481B6
:1028F00040855185D4842DB73EB72D1931090FB6C7
:10290000F8943EBF0FBE2DBFEDB7FEB731967F01E5
:102910008F012D2DFC0180810E940818FF92EF92FB
:102920001F92DF921F92CF9289EC90E19F938F9339
:102930000E94ED312DB73EB7285F3F4F0FB6F89498
:102940003EBF0FBE2DBF0FB6F894BEBE0FBEADBECC
:10295000DF91CF911F910F91FF90EF90DF90CF907B
:10296000BF90AF900895CF93DF93EC0164EC74E1D6
:1029700088810E94ED28488559856C81FC01808101
:10298000DF91CF910C9492188F929F92AF92BF9249
:10299000EF92FF921F93CF93DF93EC018C85182F5A
:1029A0001F7741E050E064EC74E188810E94BE280A
:1029B0007C018C819D81AE81BF81892B8A2B8B2BE1
:1029C00099F58091BC0082FF0EC0812F880FF7011E
:1029D0008083DF91CF911F91FF90EF90BF90AF90D8
:1029E0009F908F90089588849984AA84BB8461E025
:1029F00089E10E94352561E088E10E943525109229
:102A0000B90080E888168AE1980686E0A806B10435
:102A100038F488E48093B80084E08093BC00D5CF7C
:102A20008CE08093B800F8CF80E30E9471390F9357
:102A30001F93CF93DF938C0160E479E1FC018081E7
:102A40000E94ED28EC010E946135F8018481958196
:102A5000A681B7818C839D83AE83BF83808591855A
:102A6000A285B38588879987AA87BB87892B8A2BFC
:102A70008B2B29F4DF91CF911F910F9108958485BD
:102A80009585A685B7858C879D87AE87BF8780890A
:102A90009189A289B389888B998BAA8BBB8B8489F6
:102AA0008E8B1F8ACE01DF91CF911F910F910C94D5
:102AB000B3358F929F92AF92BF92CF92EF920F93C6
:102AC0001F93CF93DF93EC01480159011F92EF92BE
:102AD000BF92AF929F920F937F936F935F934F93A9
:102AE0001F92CF928EEC90E19F938F930E94ED31D5
:102AF0008DB79EB70E960FB6F8949EBF0FBE8DBFD2
:102B0000E11009C08C859D85AE85BF858816990624
:102B1000AA06BB0688F48F898F5F8F8B9E898917E1
:102B2000B0F4DF91CF911F910F91EF90CF90BF90B4
:102B3000AF909F908F90089588899989AA89BB89C1
:102B400088159905AA05BB0530F31F8AEACF809145
:102B500027028111FACF8CE10E947139FC01928920
:102B60009460928B1092260281E08093460280E06E
:102B700008950F931F93CF93DF938C0146E450E0A9
:102B800069EB75E1FC0180810E94BE28EC018EEAB0
:102B900095E19B838A8362ED73E3F80184810E944F
:102BA000ED289D878C87DF91CF911F910F9108951C
:102BB000FC014481558166817781208580810C9458
:102BC000CF2AEF92FF920F931F93CF93DF937C0155
:102BD0006BE576E1DC018C910E94ED288C010E946E
:102BE0006929EC01F70184819581A681B7818A83E7
:102BF0009B83AC83BD83808591859F838E83F8946E
:102C000019821882D80151968D919C915297892BE7
:102C1000B9F15396ED91FC915497D183C0835496AA
:102C2000DC93CE93539780E090E07894892B39F42D
:102C3000DF91CF911F910F91FF90EF900895C80100
:102C40000E946135D80112968D919C911397825CF8
:102C50009342F1F08A819B81AC81BD812DE333E207
:102C6000F8013383228384839583A683B783C801C5
:102C7000DF91CF911F910F91FF90EF900C94B3359E
:102C8000F801D48BC38BD28BC18B81E090E0CDCF88
:102C90008A819B81AC81BD81F80144815581668127
:102CA0007781272F481759076A072B0B27FFD6CFA5
:102CB0008FE10E947139CF92DF92EF92CF93DF9331
:102CC000EC01488559856A857B852C858C810E941D
:102CD000CF2A6B01E82E45E150E06BE576E1888173
:102CE0000E94BE28FC01C086D186E2868889998927
:102CF000908B87878C899D89AE89BF8983879487CC
:102D0000A587B6878DE393E29383828368E070E0C2
:102D1000CF014196DF91CF91EF90DF90CF900C944F
:102D20004F29DF92EF92FF920F931F93CF93DF9380
:102D3000EC01D88883E08D15B0F162ED73E38881F2
:102D40000E94ED287C018AE090E00E94CA318C014B
:102D500061E08C810E94DD18F801608371838283B9
:102D600060E088850E943525F8016383748385833C
:102D700060E08C850E943525F80166837783808723
:102D8000D186F7018581982F967081F4F701118320
:102D9000008382608583DF91CF911F910F91FF9017
:102DA000EF90DF9008958BE10E9471390E94931992
:102DB0000F931F93CF93DF93EC01F8940E94872623
:102DC000088519852A853B85DC01CB01800F911F81
:102DD000A21FB31F8C839D83AE83BF83CE010E944D
:102DE000B3357894DF91CF911F910F910895CF93D0
:102DF000DF93EC0144969F938F938B891F928F935F
:102E00008F858F938E858F931F926F938FEB90E1B9
:102E10009F938F930E94ED311B8A8E859F8501962B
:102E20009F878E878DB79EB70A960FB6F8949EBF80
:102E30000FBE8DBFDF91CF910895DF92EF92FF9289
:102E40000F931F93CF93DF93CDB7DEB729970FB6BC
:102E5000F894DEBF0FBECDBF8C01F62E9E012F5F12
:102E60003F4F89E0F90111928A95E9F782EF898352
:102E700049E061E0F801848595850E949619F80182
:102E8000838990E09C012C5E3F4FE20FF31F3B8152
:102E9000232F207F21F1203F11F12FEF2483238363
:102EA00022832183F801E80FF91F248BF80183891D
:102EB0008B5F838B8E3208F05EC0F801828981FDC2
:102EC0004FC029960FB6F894DEBF0FBECDBFDF917D
:102ED000CF911F910F91FF90EF90DF9008954D815A
:102EE000242F207FC9F52F81522F507F11F0503FA2
:102EF000A1F65885503989F659855F77E52E50E25D
:102F00005E1558F2D801A80FB91F5A8154965C93E8
:102F10008C8181838E818283822F90E03F71BC01FE
:102F2000660F771F62957295707F7627607F762790
:102F3000362B3383880F991F880F991F80764F7126
:102F4000482B4483F80183898B5F838B4EEFD42E0B
:102F5000DE0C8E32B8F012C0203F09F09ECFC3CFF6
:102F6000C8010E946135F80182898B7F828BC8017C
:102F70000E94D816A6CF8EEFD82EE12C6F2DC80157
:102F80000E94F716FEE1FE1530F4F8018089918960
:102F90000196918B808BFEE1FD1508F48ECF109287
:102FA000260281E0809346028CCFCF92DF92EF928F
:102FB000FF926B017C0109C00E948726292F6C15A6
:102FC0007D058E052F0927FF09C08091BC0087FF72
:102FD000F3CFFF90EF90DF90CF9008958FE20E94A3
:102FE000713924EA2093BC000E94D5178091B90062
:102FF00090E0A0E0B0E080319105A105B10521F09D
:103000000897A105B10509F408958EE20E9471396F
:103010007F928F929F92AF92BF92CF92DF92EF9268
:10302000FF920F931F93CF93DF93782EC62F942E8A
:10303000B52E822E0E9487266B017C0120E8C20EED
:1030400028E3D21E21E0E21EF11CC701B6010E9456
:10305000F1177092BB0084E88093BC00C701B601F1
:103060000E94D517AA24AA94AC0ECC23B1F0C92D86
:10307000DB2DB12C8FEFA81AB80AAC0EBD1E94E858
:10308000992E89918093BB009092BC00C701B60134
:103090000E94D517AC16BD06A1F7C701B6010E9464
:1030A000F117872D81608093BB0084E88093BC007A
:1030B000C701B6010E94D517DFEFD80D882009F1AE
:1030C0005801CD2F84EC982ECC2369F09092BC004F
:1030D000C701B6010E94D5178091BB00F50181930D
:1030E0005F01C15099F7F801ED0FF11DEF0184E880
:1030F0008093BC00C701B6010E94D5178091BB0028
:10310000888384E98093BC00DF91CF911F910F9158
:10311000FF90EF90DF90CF90BF90AF909F908F90F7
:103120007F900895BF92CF92DF92EF92FF920F931C
:103130001F93CF93DF93D82FC62FB42E152F0E9445
:1031400087266B017C0120E8C20E28E3D21E21E015
:10315000E21EF11CC701B6010E94F117D093BB001B
:1031600084E88093BC00C701B6010E94D5170FEF19
:103170000C0FCC23A9F0CB2DD12F10E00F5F1F4FE8
:103180000C0F1D1F84E8B82E89918093BB00B0926C
:10319000BC00C701B6010E94D517C017D107A1F71F
:1031A00084E98093BC00DF91CF911F910F91FF9034
:1031B000EF90DF90CF90BF9008958036A0F567FD27
:1031C00032C0E82FE695E695E695F0E0EE0FFF1F9A
:1031D000E855F04FA591B491109729F1877021E03F
:1031E00030E0A90102C0440F551F8A95E2F7CA01D9
:1031F0004FB7F89412963C911297662381F0382BC2
:10320000282F209512963C93129711963C91119776
:10321000232311962C9311974FBFBD010895282F9A
:1032200020953223EFCF8AE20E947139FB012FB73C
:10323000F8949281411105C08095892382832FBF24
:103240000895892B82832FBF0895FC0110922602D6
:1032500081E080934702818D8160818F4481558117
:103260006681778180859185A285B385840F951FBE
:10327000A61FB71F84839583A683B78381E0089533
:10328000FF920F931F93CF93DF93EC01F88483E0B9
:103290008F15E0F04AE150E060E479E188810E9416
:1032A000BE288C0185E299E1F8019383828362ED67
:1032B00073E38C810E94ED28F801958B848BF08E4E
:1032C000DF91CF911F910F91FF9008958DE10E94A2
:1032D0007139CF92DF92FF920F931F93CF93DF93B9
:1032E000EC0162ED73E38C810E94ED286C01F8849F
:1032F0000F2D10E0A8014D5F5F4F69E679E18881ED
:103300000E94BE28FC01D182C082F2826C857D853C
:10331000A8010396DF91CF911F910F91FF90DF904D
:10332000CF900C94CB3A8BE10E9471396F927F92CF
:103330008F929F92AF92BF92CF92DF92EF92FF92C5
:103340000F931F93CF93DF934C01E62E142F690147
:10335000DC0115967C901597872D867009F451C075
:1033600071FC39C0F401908181819CBD8DBDF72D28
:10337000F1706F2E70FCC8C0EE2009F49CC08FEF76
:10338000810F112351F0F60190819EBD0DB407FE0F
:10339000FDCF9EB591938150B8F7662091F1072D2E
:1033A000069506950695402F40954170D4011296DA
:1033B0006D917D918C91DF91CF911F910F91FF9035
:1033C000EF90DF90CF90BF90AF909F908F907F90C5
:1033D0006F900C941619ED91FC91418542706681B5
:1033E000778180850E941619B72DB1706B2E70FC05
:1033F00017C0D401CD91DC91AA24AA94A10E111179
:1034000026C0DF91CF911F910F91FF90EF90DF9039
:10341000CF90BF90AF909F908F907F906F900895C6
:10342000072D069506950695402F4170F40162819F
:10343000738184810E941619D401CD91DC91AA2454
:10344000AA94A10E112309F4AECF66246394B12C83
:103450008FEFA81AB80AAC0CBD1CD601FC9008E08E
:1034600010E0898580FF35C0EE81FF8188858083EB
:103470004F2D40786B817C818D810E941619FF0C45
:10348000EE81FF8188858083110FE881F981908129
:103490008A81892391E009F490E0192B015009F702
:1034A000EE2011F0F6011083FFEFCF1ADF0AAC1403
:1034B000BD0499F672CFF6019601210F311D2E172A
:1034C0003F0709F46ACF81918EBD0DB407FEFDCF91
:1034D000F6CF4F2D40786B817C818D810E9416192B
:1034E000FF0CEE81FF8188858083110FE881F981CF
:1034F00090818A81892391E009F490E0192BEE8173
:10350000FF8188858083CACF73FA442740F9F4018C
:103510006281738184810E941619662463942CCF82
:10352000CF93DF93EC0162ED73E388810E94ED2875
:10353000288539854C8160E0DF91CF910C949619F4
:10354000FF920F931F93CF93DF93EC01188162EDED
:1035500073E3812F0E94ED280C81F884C9852F2DFB
:103560003C2F402F61E00E949619CF93FF921F924B
:103570000F931F921F9383ED90E19F938F930E946F
:10358000ED318DB79EB708960FB6F8949EBF0FBE6B
:103590008DBFDF91CF911F910F91FF900895CF9331
:1035A000DF93EC016A8D662309F453C0FC0150E0FF
:1035B00031E020E0A38DB48D4C91958D942309F0DA
:1035C000532B2F5F330F33962613F4CF2C85922F76
:1035D000952729F08D85852780959823D9F4888DA6
:1035E0005D8787FD03C0815070F1888F4C815D81BC
:1035F0006E817F8188859985AA85BB85840F951FFB
:10360000A61FB71F8C839D83AE83BF8381E0DF91AC
:10361000CF910895982F909529238523822B8C870D
:103620009E859830E0F621E0290F2E87FE01E90FF4
:10363000F11D87871092260281E0809348028FEF68
:10364000888F5D87D3CF1092260291E09093480235
:10365000CCCF50E0BBCFAF92BF92DF92EF92FF9200
:103660000F931F93CF93DF93FC01A485B5859685B7
:1036700047855089E18822893389F488A588B688EE
:103680007789008D118DD28C808586279C9384FD4F
:1036900020C085FD22C086FD24C087FD26C09C93E6
:1036A000862F8295807F808768279C9364FD2AC03F
:1036B00065FD25C066FD1CC067FD1EC09C93DF91A3
:1036C000CF911F910F91FF90EF90DF90BF90AF903F
:1036D0000895EA01E88285FFDECFE901F88286FFDE
:1036E000DCCFE501788387FFDACFE801D882D7CF36
:1036F000F501708367FFE2CFE801D882DFCFE901EF
:10370000F882D8CFFA01E082D3CF0F931F93CF93E3
:10371000DF938C0161EB7BE1DC018C910E94ED2851
:10372000FC01D80114969C91828D9817B8F4292F2A
:1037300030E0E901CC0FDD1F2C0F3D1FEF01C20F60
:10374000D31FF801648580850E94DD186B8F7C8F04
:103750008D8FDF91CF911F910F91089584E20E9488
:103760007139CF93FC01C481C930B8F44C2F50E0BB
:103770009A01220F331F420F531F455E5F4F61EBCB
:103780007BE1FC0180810E94BE28FC01C28F2FECEE
:103790003AE133832283CF91089585E20E94713903
:1037A0005F926F927F928F929F92AF92BF92CF92D1
:1037B000DF92EF92FF920F931F93CF93DF938C01D1
:1037C000FC01C080D180E280F38084809580A68057
:1037D000B78066246A94660E662301F1EA01712CB3
:1037E000FFEF6F1A7F0A640E751E59900E9487269C
:1037F000DC01CB018C199D09AE09BF09881599051B
:10380000AA05BB0598F3652DC8010E942B1B0E94D9
:1038100087266B017C01C615D70539F7F801C082F0
:10382000D182E282F382DF91CF911F910F91FF90BD
:10383000EF90DF90CF90BF90AF909F908F907F9050
:103840006F905F9008950F931F93CF93DF93EC01D8
:103850006BE57CE188810E94ED288C01FC0161858B
:103860007285838541E00E941619488559856C81CF
:10387000C801DF91CF911F910F910C94D01B0F9332
:103880001F93CF93DF93EC016BE57CE188810E946D
:10389000ED288C01FC0161857285838540E00E94E2
:1038A0001619488559856C81C801DF91CF911F9108
:1038B0000F910C94D01BCF92DF92EF92FF920F9357
:1038C0001F93CF93DF93EC014BE150E06BE57CE17C
:1038D00088810E94BE288C0160E08C810E94352581
:1038E000F80161877287838760E088850E943525AB
:1038F000F80164877587868760E08C850E9435258E
:10390000F8016787708B818B60E088890E9435257C
:10391000F801628B738B848B60E08C890E94352563
:10392000F801658B768B878B60E0888D0E9435254A
:10393000F801608F718F828FF8940E9487266B0147
:103940007C0160E0C8010E942B1B0E9487267894AE
:10395000DC01CB018C199D09AE09BF09CC8CDD8C33
:10396000EE8CFF8C8C159D05AE05BF0548F4C81A7A
:10397000D90AEA0AFB0AF801C482D582E682F782F4
:10398000DF91CF911F910F91FF90EF90DF90CF903B
:1039900008954F925F926F927F928F929F92AF9213
:1039A000BF92CF92DF92EF92FF920F931F93CF932C
:1039B000DF938C01562E3A01FC0180809180A28019
:1039C000B380C480D580E680F780EA012196FA01B1
:1039D0004080642D607F0E94912F0E948726DC0129
:1039E000CB0188199909AA09BB098C159D05AE055B
:1039F000BF0598F3642D6295607FC8010E94912FE6
:103A00000E9487266B017C01F80180849184A28446
:103A1000B384F1E05F1639F15A945A94852D90E001
:103A20000296680E791E5990652D607FC8010E942C
:103A3000912F0E948726DC01CB018C199D09AE09CC
:103A4000BF0988159905AA05BB0598F3652D6295F0
:103A5000607FC8010E94912F0E9487266B017C0124
:103A6000C615D70501F7F801C082D182E282F38240
:103A7000DF91CF911F910F91FF90EF90DF90CF904A
:103A8000BF90AF909F908F907F906F905F904F907E
:103A90000895CF92DF92EF92FF92CF93DF93FC01D4
:103AA000A085B18582858C93968581E0892786875C
:103AB000C82FC170C688D788E08CF18C97859F5F2E
:103AC000D1899D1708F05FC0892F869586958695C8
:103AD000DF01A80FB11D5A962C9130E0892F877015
:103AE00002C0359527958A95E2F72170B701A601A6
:103AF000C217A9F033C0892F869586958695DF0178
:103B0000A80FB11D5A962C9130E0892F877002C002
:103B1000359527958A95E2F72170C2131FC04C0D89
:103B20005D1D6E1D7F1D9F5F9D1728F384E490E24D
:103B30009383828384819581A681B781480F591F21
:103B40006A1F7B1F448355836683778381E0DF91FF
:103B5000CF91FF90EF90DF90CF9008959787848169
:103B60009581A681B781480F591F6A1F7B1F448327
:103B700055836683778381E0DF91CF91FF90EF904B
:103B8000DF90CF900895B701A601D0CFCF92DF92FA
:103B9000EF92FF920F931F93CF93DF93EC01E88591
:103BA000F9858A8580830E9487263E8521E0232728
:103BB0002E872F852F5F2F87213009F45CC0253099
:103BC000E0F40C811D812E813F814A895B896C89DB
:103BD0007D89DB01CA01800F911FA21FB31F8C8357
:103BE0009D83AE83BF8381E0DF91CF911F910F91C1
:103BF000FF90EF90DF90CF900895CC80DD80EE8035
:103C0000FF80AB01BC014C195D096E097F098E89EB
:103C10009F89A88DB98D481B590B6A0B7B0BDB0163
:103C2000CA010296A11DB11DB7FD34C0B595A79577
:103C300097958795B595A795979587950A891B8937
:103C40002C893D89800F911FA21FB31F8E8B9F8BE4
:103C5000A88FB98F29E43DE13B832A834C0D5D1D7C
:103C60006E1D7F1D840F951FA61FB71F8C839D831C
:103C7000AE83BF83B8CF0C811D812E813F81AB0104
:103C8000BC01401B510B620B730B4E8B5F8B688F1B
:103C9000798F9BCFDB01CA010596A11DB11DC6CF4F
:103CA000EF92FF920F931F93CF93DF937C0161EF0D
:103CB0007EE1FC0180810E94ED28EC011E8511FF50
:103CC00007C0DF91CF911F910F91FF90EF90089562
:103CD000F701048160857185F4840B3008F045C0DC
:103CE000FAE0FF1508F441C0402F50E04A960E94C8
:103CF000CB3A1F86117312601E87802F880F880FA2
:103D0000880F898BFF0CFF0CFF0CF88A002349F009
:103D10008A8D8F738A3229F486EC9DE19B838A8396
:103D20000CC08A899B89AC89BD898E8B9F8BA88F9B
:103D3000B98F89E49DE19B838A83F8940E9487264A
:103D4000DC01CB018058934FAF4FBF4F8C839D83D5
:103D5000AE83BF83CE010E94B3357894DF91CF91BB
:103D60001F910F91FF90EF90089586E20E947139A4
:103D70000F931F93CF93DF938C0161EB7BE1DC0109
:103D80008C910E94ED28EC01D8011496EC918F895A
:103D90008E0F8F8BF8948E85E817D0F48E1BF0E091
:103DA0003F96EC0FFD1FDE011F962FEF280F30E02E
:103DB000205F3F4F2C0F3D1F91919D93A217B3079A
:103DC000D9F78E877894DF91CF911F910F91089545
:103DD0001E868EEF888F7894DF91CF911F910F917F
:103DE00008957F928F929F92AF92BF92CF92DF926F
:103DF000EF92FF920F931F93CF93DF93EC0144E276
:103E000050E061EF7EE188810E94BE288C017884B9
:103E10008C809D80AE80BF80CC84DD84EE84FF8466
:103E200061E0711001C060E0882D0E94DD18F8018A
:103E300063877487858761E08C2D0E943525F801A2
:103E400060877187828788899989AA89BB89828BD3
:103E5000938BA48BB58B711018C091E08C149D04CA
:103E6000AE04BF04C1F080E0892BF8018687DF91A2
:103E7000CF911F910F91FF90EF90DF90CF90BF9067
:103E8000AF909F908F907F90089591E18C149D0446
:103E9000AE04BF0441F780E2E7CF0F931F93CF93A7
:103EA000DF938C0161EB7BE1FC0180810E94ED28B6
:103EB000EC010E946135F80184819581A681B7816A
:103EC0008C839D83AE83BF834085518562857385D6
:103ED000488759876A877B8780898D878C871E866C
:103EE0001F8A8EEF888F8485898F87FD10C0452BB0
:103EF000462B472B29F4DF91CF911F910F91089505
:103F0000CE01DF91CF911F910F910C94B33583E2D5
:103F10000E947139CF93DF93EC018E8585FD0DC032
:103F2000688579858A8541E00E9416198E8580739F
:103F300081608E87DF91CF910895E885F9858A8524
:103F40002FB7F8949281982B92839181892B81834A
:103F50002FBF8E85807381608E87DF91CF9108950A
:103F6000CF93DF93FC01A385B4855C918785982F5F
:103F7000977021E030E001C0220F9A95EAF7982F60
:103F8000969596959695DF01A90FB11D5A969C912D
:103F90005A9745854523E1F0292B5A962C938F5F3C
:103FA00090898917E8F487874481558166817781F4
:103FB00086899789A08DB18D840F951FA61FB71F85
:103FC00084839583A683B78381E0DF91CF910895A1
:103FD000209529235A962C938F5F9089891718F37F
:103FE000EF01CF010E948A1F8E8588608E87109214
:103FF000260281E08093490280E0DF91CF9108950D
:10400000CF93DF93FC01A385B4859C91858589239B
:10401000E9F0868584608687878591E0980F978789
:10402000803408F544815581668177818689978936
:10403000A08DB18D840F951FA61FB71F8483958314
:10404000A683B78381E0DF91CF910895868582FFB3
:10405000E3CF178680EB9FE193838283CF01DF91CB
:10406000CF910C94B01FEF01108ACF010E948A1FDC
:104070008E8588608E871092260281E080934902A7
:1040800080E0DF91CF9108950F931F93CF93FC01B0
:10409000C089CC23E9F1868585FD23C0178680E0A1
:1040A00090E29383828386899789A08DB18D880F52
:1040B000991FAA1FBB1F880F991FAA1FBB1F4481EE
:1040C000558166817781840F951FA61FB71F848352
:1040D0009583A683B783C1E08C2FCF911F910F9159
:1040E0000895A385B48595852FB7F89484FF21C0E2
:1040F00012968C911297892B909512968C93129709
:1041000011968C911197982311969C932FBFC6CF2F
:104110008C010E948A1FF80186858860868710922C
:10412000260281E0809349028C2FCF911F910F913D
:10413000089512968C91129790958923DECF1F9344
:10414000CF93DF93EC01162FAC89BD891097B9F09E
:104150001296ED91FC9113978D919C9111979D8BE7
:104160008C8B11961C921E9213961C921E92129783
:10417000612FCD011995AC89BD89109749F710922F
:10418000260281E080934A02DF91CF911F9108952A
:10419000FC013897968990FF08C0608D678B9A7FE5
:1041A0009460968BCF010E949F2080E00895FC01CF
:1041B00086898460868B1092260281E080934A0271
:1041C000448155816681778180899189A289B389EB
:1041D000840F951FA61FB71F84839583A683B7837B
:1041E00081E00895FC01A085B1859C918285892399
:1041F000D1F0818D80958170C9F4838D815031F12A
:10420000838F448155816681778187859089A189D3
:10421000B289840F951FA61FB71F84839583A68339
:10422000B78381E00895818D817039F38DE799E23C
:104230009383828383899489A589B68984839583AE
:10424000A683B783828D838F81E00895A789B08D7F
:1042500056969C915697892F817090FFE3CF648D7D
:1042600057966C9357979A7F946056969C9356975F
:10427000CD010E949F2080E00895FC0180917A008A
:1042800086FF0EC084819581A681B7818853984F9F
:10429000AF4FBF4F84839583A683B78381E0089592
:1042A000828D90910902981781F09F3F59F7809372
:1042B0000902982F987090937B0087708064809398
:1042C0007C0087ED80937A00DDCF8FEF8093090229
:1042D0002091780030917900858D968D891780F531
:1042E00044895589240F351F8F5F358B248B858F2B
:1042F000891760F18689978928173907C8F1808D59
:10430000918D82179307A0F1138E1092260281E0FF
:1043100080934B0240895189628973898085918598
:10432000A285B385840F951FA61FB71F808B918B25
:10433000A28BB38B84839583A683B78381E0089592
:1043400081E0358B248B858F8917A0F644815581B8
:104350006681778184859585A685B785840F951FAD
:10436000A61FB71F84839583A683B78381E0089532
:10437000838D8F5F838F948D891738F28091270208
:104380008111C2CF8AE10E947139EF92FF921F938F
:10439000CF93DF937C01FC0110816CE372E2812FEB
:1043A0000E94ED28EC01F8948E8980FF09C0F70186
:1043B00064816F8B8A7F84608E8BCE010E949F20E8
:1043C000CE010E946135CE0108960E9461351E8A99
:1043D0008F8978941F921F921F921F921F928F9322
:1043E0001F921F921F921F938DED90E19F938F93C9
:1043F0000E94ED318DB79EB70C960FB6F8949EBF14
:104400000FBE8DBFDF91CF911F91FF90EF90089568
:10441000CF93FC01C08162ED72E28C2F0E94ED28E7
:10442000FC01F894818D3389448955896689789493
:10443000A085B1852C919285922321E009F420E09A
:104440001F922F936F935F934F933F938695817045
:104450001F928F931F92CF9382EE90E19F938F9341
:104460000E94ED318DB79EB70C960FB6F8949EBFA3
:104470000FBE8DBFCF91089549E150E06CE372E229
:10448000FC0180810E94BE2827ED30E2FC013383CD
:10449000228328EC30E2338722870895EF92FF923F
:1044A0000F931F93CF93DF938C016CE372E2FC01B7
:1044B00080810E94ED28EC01F8948E8980FF13C062
:1044C0007E01F8E0EF0EF11CC7010E946135F80192
:1044D00084819581A681B7818C879D87AE87BF87B0
:1044E000C7010E94B3357894DF91CF911F910F914E
:1044F000FF90EF9008950F931F93CF93DF938C015C
:1045000062ED72E2FC0180810E94ED28EC010E94C4
:104510006135F80184819581A681B7818C839D8363
:10452000AE83BF8380859185A285B3858F87988B65
:10453000A98BBA8B84858A8F882361F1F801408921
:104540005189628973894B875C876D877E872DE7E8
:1045500039E23B832A838B8F84899589A689B78921
:10456000892B8A2B8B2BA1F482E0898F6CE372E27A
:10457000F801808D0E94ED28988F8F8BF801848D33
:104580008C8FCE01DF91CF911F910F910C94B33599
:1045900083E0EBCF188E1F8A198EDF91CF911F9188
:1045A0000F9108950F931F93CF93DF93EC014DE18B
:1045B00050E062ED72E288810E94BE288C0168851D
:1045C0008C810E94DD18F801608771878287DF91F6
:1045D000CF911F910F910895CF93DF93EC010E942B
:1045E0006135CE0108960E946135EC89FD893097CE
:1045F00051F0908181811382128211821082E92F01
:10460000F82F3097B1F71D8A1C8A188E1F8A1E8AD0
:10461000DF91CF9108950F931F93CF93DF938C0178
:104620006CE372E2FC0180810E94ED28EC01F894B9
:104630000E94EC2281E08E8BF80184819581A68115
:10464000B7818C839D83AE83BF8380859185A2854E
:10465000B385888B998BAA8BBB8B892B8A2B8B2B51
:1046600019F0CE010E94B335F8018485888F7894C3
:10467000DF91CF911F910F9108950F931F93CF93C7
:10468000DF93FC01A189B2898D919C911197928B46
:10469000818B16968D919C911797C085D185228527
:1046A00021113FC02FB7F894AC0155275983488397
:1046B0002FBF20914C0230914D0211963C932E93C6
:1046C000B0934D02A0934C02A189B289109759F57D
:1046D000278530898217930741F083859485A585C6
:1046E000B6850097A105B10531F480E0DF91CF9147
:1046F0001F910F9108954481558166817781840FC0
:10470000951FA61FB71F84839583A683B78382EC6A
:1047100093E29383828381E0DF91CF911F910F9188
:1047200008958883C6CF12964D915D916D917C91CD
:104730001597278530898217930741F083859485E3
:10474000A585B6850097A105B10551F4448355832D
:104750006683778381E0DF91CF911F910F91089558
:104760000481158126813781800F911FA21FB31FFD
:104770002B2F84179507A607270B27FFE7CF8FE17D
:104780000E94713980E20E9471392F923F924F92BC
:104790005F926F927F928F929F92AF92BF92CF92D1
:1047A000DF92EF92FF920F931F93CF93DF9300D08E
:1047B0001F921F92CDB7DEB77C012DB73EB73D8368
:1047C0002C8364EC74E1DC018C910E94ED289B83C6
:1047D0008A83F701F481F983D70118966D907C9054
:1047E00019971C968D919D910D90BC91A02D80FDE7
:1047F0006BC01C012D015694479437942794F70100
:10480000E088F188C22CD12CF9810F2F10E0C8016B
:104810008C0D9D1D2DB73EB7281B390B0FB6F89494
:104820003EBF0FBE2DBF8DB79EB701965C01A8019C
:10483000B3010E94CB3A4501800E911E8401222DC6
:10484000A3016981AA81BB818C910E940818C114BF
:10485000D10499F0CE0CDF1CF4019601D7018D91A3
:104860007D018095908189238083D9019D919D014F
:10487000892B8193CE14DF0489F76981620DA5012C
:10488000EA81FB8180810E949218EC81FD810FB644
:10489000F894FEBF0FBEEDBF0F900F900F900F90DA
:1048A0000F90DF91CF911F910F91FF90EF90DF90CC
:1048B000CF90BF90AF909F908F907F906F905F90C0
:1048C0004F903F902F9008958EE10E947139B099DA
:1048D0000FC080914F0290915002019610920502F4
:1048E00010920402909307028093060281E00895DB
:1048F00081E086BB80914F02909150020196909387
:10490000500280934F0220E030E83093050220935C
:104910000402909307028093060281E00895CF93EA
:10492000DF93FC0184819581A681B78144895589F3
:1049300066897789C58DD68D3881C42FC170278D42
:10494000232331E009F430E0C31761F04F5F5F4F7C
:104950006F4F7F4F448B558B668B778B808F918FFA
:10496000A28FB38F4089518962897389272F481795
:1049700059076A072B0B27FF18C0248D2160248F4D
:104980004485558566857785840F951FA61FB71FBB
:10499000808B918BA28BB38B1092260281E0809347
:1049A0004E0284819581A681B781408551856285BB
:1049B0007385840F951FA61FB71F84839583A683D5
:1049C000B78381E0DF91CF9108950F931F93CF9329
:1049D000DF938C0167E175E2FC0180810E94ED2884
:1049E000EC010E946135F80184819581A681B7812F
:1049F0008C839D83AE83BF8340855185628573859B
:104A0000488759876A877B8744855585668577857A
:104A10004C875D876E877F87888B998BAA8BBB8B32
:104A2000CE01DF91CF911F910F910C94B3350F936D
:104A30001F93CF93DF93EC0140E250E067E175E212
:104A400088810E94BE288C0168858C810E94DD18B7
:104A5000F801658F768F878F8FE894E29383828346
:104A6000DF91CF911F910F910895803678F5E82F4F
:104A7000E695E695E695F0E0EE0FFF1FE855F04F5E
:104A8000A591B491109711F1877021E030E0A90150
:104A900002C0440F551F8A95E2F7CA013FB7F89448
:104AA00012962C91129761110FC0409524231296F3
:104AB0002C93129711962C911197282B11962C93C9
:104AC00011973FBFBD010895242BF1CF8BE20E94C7
:104AD00071391F920F920FB60F9211240BB60F92DD
:104AE000EF92FF920F931F932F933F934F935F93F8
:104AF0006F937F938F939F93AF93BF93CF93DF93E6
:104B0000EF93FF930DC07A0180918400909185000E
:104B10008E199F0997FD7CC07894B2999AC0F89439
:104B2000C0912202D0912302EA81FB81309709F0E3
:104B3000ADC0EA8DFB8D2C8D20838E859F850197DE
:104B400009F4C1C09F878E8788859985AA85BB8512
:104B50004C815D816E817F81480F591F6A1F7B1FC9
:104B60004C835D836E837F8320832CA525FF0EC03D
:104B70000C851D85012E000C220B330B800F911F1D
:104B8000A21FB31F88879987AA87BB87E881F9810D
:104B90000481158126813781872F401751076207CD
:104BA000830B87FDB0CF7801F0932302E0932202BC
:104BB000A0912402B091250214960D911D912D9182
:104BC0003C911797872F401751076207830B87FF88
:104BD000FD01DF010190F081E02D04811581268126
:104BE0003781872F401751076207830B87FFF1CF6B
:104BF000F983E883CD93DC93D0932502C0932402FC
:104C000080918400909185008E199F0997FF84CF31
:104C1000863A9F4F0CF06AC0F0928900E0928800BB
:104C2000FF91EF91DF91CF91BF91AF919F918F91C4
:104C30007F916F915F914F913F912F911F910F91B4
:104C4000FF90EF900F900BBE0F900FBE0F901F9034
:104C50001895F89480918400909185009701281B05
:104C6000390B2038314CDCF12091260227FF43C05C
:104C70009C01205C304E30938B0020938A0024E00E
:104C800026BB90938900809388003ECFCE01199572
:104C90004C815D816E817F81811178CFE881F981BE
:104CA000E480F580F0932302E093220280912402B5
:104CB00090912502C817D90709F026CFF093250255
:104CC000E093240221CFCE010E940B2DEA8DFB8DB3
:104CD0009C8D90834C815D816E817F81DDCF2091A1
:104CE00027022111C1CF89E20E9471397894B299CB
:104CF000B0CFF89409CF9C012854344F30938B00E7
:104D000020938A0024E026BB7C01F39485CF2FB743
:104D1000F894609184007091850080914F02909189
:104D20005002B09902C02FBF08952FBF7F3FE1F31B
:104D30000196089578940E948A372FEF260F6623F4
:104D4000C1F0FC018FEF9FEF31918327082E8295F0
:104D5000807F8025092E982F82958F700826869552
:104D600098278927880F880F880F8025215060F7A2
:104D700008958FEF9FEF08950F931F93FC01A4896F
:104D8000B58986898C9393A181E0892783A3448187
:104D900055816681778180FF12C00085118522854B
:104DA0003385400F511F621F731F82FD12C0448361
:104DB00055836683778381E01F910F910895048561
:104DC000158526853785400F511F621F731F82FF8F
:104DD000EECF0089118922893389872F4017510727
:104DE0006207830B87FDE3CF80E297E293838283A0
:104DF000B901A801448355836683778381E01F91BD
:104E00000F9108950895FC018081A481B5814085AA
:104E10005185628573859FB7F894813061F0823047
:104E200019F04C939FBF08954D935D936D937C93C0
:104E300013979FBF089511965C934E939FBF08955B
:104E40008F929F92AF92BF92CF92DF92EF92FF929A
:104E50001F93CF93DF93EC01EF8CF8A0E114F104E2
:104E600009F4F0C0F7018081918198A38F8F86802B
:104E70009780A084B18411E081149104A104B1044D
:104E800009F4A1C06C897D898E89412F0E94161971
:104E900080914C0290914D02F70191838083F092B2
:104EA0004D02E0924C0281149104A104B104E9F096
:104EB0008B8D9C8DAD8DBE8D88169906AA06BB067E
:104EC000A0F44F89588D698D7A8D41155105610582
:104ED000710509F45BC08C819D81AE81BF81480F53
:104EE000591F6A1F7B1F166022C08BA131E08114FD
:104EF0009104A104B10409F068C084FB992790F9DA
:104F000021E09227391709F443C04F89588D698DE4
:104F10007A8D4115510561057105D1F18C819D8115
:104F2000AE81BF81480F591F6A1F7B1F1460EF8D30
:104F3000F8A1309709F077C02BA1488B598B6A8B69
:104F40007B8B2071212B2BA311FF5FC0880D991D36
:104F5000AA1DBB1D12FD52C02CEB36E23B832A83F7
:104F60008C839D83AE83BF8388869986AA86BB8601
:104F70008B8D9C8DAD8DBE8D88199909AA09BB09B1
:104F80008C879D87AE87BF8781E011C012608BA19F
:104F9000EF8DF8A13097D9F4188A198A1A8A1B8ADA
:104FA0008071812B8BA3812F827011FD34C0DF9122
:104FB000CF911F91FF90EF90DF90CF90BF90AF9077
:104FC0009F908F90089510E05DCF30E096CF4281A2
:104FD000538164817581488B598B6A8B7B8B80717F
:104FE000912F9460892B8BA311FF0FC08C819D8121
:104FF000AE81BF81880D991DAA1DBB1D2B2F841763
:105000009507A607270B27FDA7CF4C835D836E83EB
:105010007F8381E0CCCF40E050E0BA018C819D815C
:10502000AE81BF8193CFC280D380E480F580872F8B
:105030004C155D056E058F0987FD07C08BA1B70173
:10504000A601C9CF85E10E94713983E10E947139BF
:10505000FC0185818F9384818F9380811F928F9330
:1050600081EF90E19F938F930E94ED310F900F900D
:105070000F900F900F900F900895DC012C911496D3
:10508000ED91FC9115973FB7F8942130E9F022306B
:10509000B1F0808190E0A0E0B0E03FBFBF93AF935C
:1050A0009F938F938CEE90E19F938F930E94ED31AD
:1050B0000F900F900F900F900F900F900895808198
:1050C0009181A281B381E9CF80819181A0E0B0E09C
:1050D000E4CFCF92DF92EF92FF92FC0140815181A9
:1050E000628173812481E4EAFFE085919591A59125
:1050F000B491481759076A077B0770F56A017B016D
:10510000C20ED11CE11CF11C8C159D05AE05BF051E
:1051100000F5841B90E09A01215C3A4F3F932F9356
:105120009F938F937F936F935F934F938AE091E167
:105130009F938F930E94ED318DB79EB70A960FB65D
:10514000F8949EBF0FBE8DBFFF90EF90DF90CF9081
:105150000895822F90E0DFCF80E090E0DCCF809157
:105160002702882329F0823011F010922702089537
:1051700082E00E9471398EE00E947139CF93DF93F3
:1051800090913702891730F5C82FD0E0CC0FDD1F82
:10519000CC0FDD1FE0913802F0913902EC0FFD1FBA
:1051A00080819181892BB1F480913F0290914002DE
:1051B000892B81F471836083CA010E94CA312091D6
:1051C000380230913902C20FD31F9B838A83DF914B
:1051D000CF9108958BE00E94713990913702891721
:1051E00088F4E0913802F091390294E0899FE00D53
:1051F000F11D1124808191818617970719F482810E
:10520000938108958CE00E947139CF92DF92EF92E2
:10521000FF92CF93DF93C0913F02D091400220973D
:10522000B9F121976E01E12CF12CA0913E02B0E082
:105230002097D9F020E030E040E050E0BA018091C2
:105240003C0290913D02FC01E20FF31F4F5F5F4F64
:105250006F4F7F4F2A0F3B1F820F931F91838083D5
:105260004C155D056E057F0550F380913C029091D1
:105270003D02CA9FF001CB9FF00DDA9FF00D112483
:10528000E80FF91F1182108290934D0280934C0217
:10529000DF91CF91FF90EF90DF90CF900895FC01C8
:1052A00013821282118210826F3F710509F07CF423
:1052B00080913F0290914002892B49F480913E02F7
:1052C00090E08617970714F460933E0208950E94B9
:1052D000BB282FB7F89480914C0290914D02009713
:1052E00049F0FC014081518150934D0240934C02A2
:1052F0002FBF08958FE00E9471390F931F93FC0117
:10530000A085B1859C9104811581268137814385D3
:10531000548565857685400F511F621F731F8285F6
:10532000892361F0818D8095817059F04483558384
:105330006683778381E01F910F910895818D81703D
:10534000A9F7438B548B658B768B82EF90E2938326
:105350008283CF011F910F910C94F220CF93DF93A2
:10536000EC0165EB7CE288810E94ED28FC018C81D8
:105370009D81AE81BF81892B8A2B8B2B51F420E03C
:10538000F89494A59D7F922B94A77894DF91CF9168
:10539000089522E0F5CF0F931F93CF93DF938C01F5
:1053A000EC01A897CE010E9461351C821D821E82ED
:1053B0001F821A8A1B8A1C8A1D8A88A199A1AAA108
:1053C000BBA12CA54E855F856889798924FD04C021
:1053D0007695679557954795841B950BA60BB70B4C
:1053E000B7FD40C0B095A095909581959F4FAF4F68
:1053F000BF4F88A399A3AAA3BBA31E861F86188AA2
:10540000198A247128602CA76D8D7E8D8F8D40E0C8
:105410000E9416194CA544706A8D7B8D8C8D0E945C
:105420001619D8011497ED91FC9111973097A9F0B6
:1054300040914C0290914D0201C0F90120813181CF
:1054400040839183F0934D02E0934C024E2F9F2FA7
:105450002115310591F71D921C92DF91CF911F917B
:105460000F910895B095A095909581959F4FAF4F5E
:10547000BF4FB8CF0F931F93CF93DF938C0165EB92
:105480007CE2FC0180810E94ED28EC016CE372E279
:10549000F80184810E94ED28BE01685D7F4F4FB7FF
:1054A000F8942AA53BA5232B89F42BEC39E23BA7E2
:1054B0002AA7FC012489358939A728A7758B648B15
:1054C0004FBFDF91CF911F910F91089589E10E9405
:1054D0007139CF93DF93EC0165EB7CE288810E9408
:1054E000ED28FC018C819D81AE81BF81F8944685B9
:1054F000578560897189452B462B472B79F4848326
:105500009583A683B783828B938BA48BB58B84A55D
:10551000877F84A77894DF91CF91089586E10E94D8
:105520007139CF93FC01C08165EB7CE28C2F0E9426
:10553000ED28FC01F89480A191A1A2A1B3A124A51A
:10554000468557856089718924FD04C076956795E5
:1055500057954795841B950BA60BB70BB7FF07C054
:10556000B095A095909581959F4FAF4FBF4F789480
:10557000B054BF93AF939F938F931F92CF9387EEB7
:1055800090E19F938F930E94ED318DB79EB708965F
:105590000FB6F8949EBF0FBE8DBFCF910895CF92E6
:1055A000DF92EF92FF921F93CF93DF936A017B010B
:1055B00060EC7FE0FB019491981749F0675F7F4FA3
:1055C000F0E160357F07B1F783E30E947139FB0199
:1055D0003896949191FF1AC030EAC3163FE5D3067E
:1055E000E104F10408F483C0C0E8CC16CEE7DC0681
:1055F000C1E0EC06F10408F090C0D0E4CD16DFEB7A
:10560000DD06E104F104C8F414E022C0F8EBCF1683
:10561000F7E4DF06E104F10490F0A0ECCA16AEE373
:10562000DA06A1E0EA06F10408F475C0C114BBEF84
:10563000DB06B4E0EB06F10438F315E009C037EF00
:10564000C31638E0D306E104F10408F05FC011E0AE
:10565000FB013396A591B491FB013596C591D49188
:10566000FB0137963491E82FE695E695E695F0E054
:10567000EE0FFF1FE855F04F459154918770E1E020
:10568000F0E07F0101C0EE0C8A95EAF7FB0131964C
:10569000C590D490892F8170A038B10509F44BC012
:1056A000EFB7F8949881977011F0191341C01883DF
:1056B00081112EC09FB7F894622F70E0E6017983C4
:1056C00068839FBF9C913160392B3C93DA0111961E
:1056D0009C911197E92A1196EC92EFBFB601DF91E8
:1056E000CF911F91FF90EF90DF90CF900895A8ED9C
:1056F000CA16A7E2DA06E104F10468F4B7EFCB16A4
:10570000B8E0DB06E104F10408F4A1CF12E0A0CF79
:10571000E6012883D7CF13E09BCFC114EBEFDE0661
:10572000E4E0EE06F10410F416E092CF17E090CF1B
:1057300081E30E94713982E30E9471394F925F9236
:105740006F927F92BF92CF92DF92EF92FF920F9370
:105750001F93CF93DF93FC01B08063E77CE28B2D36
:105760000E94ED28EC014D805E806F807884C984B2
:10577000DA84EB84FC840E948726DC01CB01841947
:105780009509A609B7098C159D05AE05BF0568F4F6
:105790000E948726DC01CB0184199509A609B70967
:1057A0008C159D05AE05BF0598F3CD84DE84688118
:1057B00079818A81A0918400B09185000B811C8140
:1057C0009E01215F3F4F7901C20ED31ECE14DF042C
:1057D00009F457C0F70191917F0128E013C0F894B4
:1057E0004091840050918500FB01808380837894F0
:1057F000FA01EA1BFB0BE017F107D8F4990FDA0165
:10580000215021F397FFEBCFF89440918400509101
:105810008500FB0180837894FA01EA1BFB0BE017FB
:10582000F10738F4990FF894FB0180837894DA013A
:10583000E7CF40E00E9416190E9487266D837E8381
:105840008F83988780E01F928F931F92BF9287E982
:1058500090E19F938F930E94ED310F900F900F90E6
:105860000F900F900F90DF91CF911F910F91FF90AC
:10587000EF90DF90CF90BF907F906F905F904F90B0
:1058800008950E9487266D837E838F83988781E0A9
:10589000DACF0F931F93CF93DF93EC0163E77CE2A2
:1058A00088810E94ED280C811D812E813F814885D1
:1058B0006C857D8517FD14C050E0DA01A00FB11F83
:1058C000EC01ED85FE85EA17FB0750F0015F1F4FE5
:1058D000800F911FDF91CF911F910F910C94CB3AC4
:1058E00087E20E9471396F927F928F92CF92DF92FE
:1058F000EF92FF92CF93DF93EC0160E08C810E94E6
:1059000035253B01882EC884D984EA84FB84D7FCE2
:1059100024C0A601415F5F4F63E77CE288810E945B
:10592000BE28FC01608271828282D686C5868C8503
:105930009D859483838388899989AA89BB89818776
:105940009287A387B487DF91CF91FF90EF90DF908C
:10595000CF908F907F906F90089588E20E94713968
:10596000FC01648180810C9435250F931F93CF93A4
:10597000DF938C014DE250E065EB7CE2FC0180811D
:105980000E94BE28EC01F801848518160CF041C075
:1059900064E06CA7F80184810E9435256A8F7B8FB3
:1059A0008C8F60E0F80180850E9435256D8F7E8F99
:1059B0008F8F80E090E0A0E0B0EC88A399A3AAA329
:1059C000BBA3F80180899189A289B3898E8B9F8BB3
:1059D000A88FB98F6BE070E0CE0184960E944F29AA
:1059E0008E899F89A88DB98D8997A105B10548F049
:1059F00088E49EE29B838A83DF91CF911F910F9170
:105A000008958CA580618CA7DF91CF911F910F9194
:105A1000089560E0BECFCF92DF92EF92FF92CF93D6
:105A2000DF93FC01A4A1B5A1109761F41686178637
:105A3000108A118A80E0DF91CF91FF90EF90DF9084
:105A4000CF9008958D919C91119795A384A316965C
:105A50008D919C911797958784871296CD90DD90B4
:105A6000ED90FC901597AC01092E000C660B770B9E
:105A70004C0D5D1D6E1D7F1D4087518762877387AA
:105A800024A524FD43C04289538964897589C40EC5
:105A9000D51EE61EF71EC28AD38AE48AF58AC4821E
:105AA000D582E682F78218968D919C911997AC0168
:105AB00060E070E0440F551F661F771F46875787C9
:105AC000608B718B1A962C911A9720FD3FC040A1D4
:105AD00051A162A173A1480F591F611D711D40A3FF
